{
  "contractName": "LoyaltyPointSystem",
  "abi": [
    {
      "constant": false,
      "inputs": [
        {
          "name": "_name",
          "type": "string"
        },
        {
          "name": "_email",
          "type": "string"
        },
        {
          "name": "_phoneNumber",
          "type": "uint256"
        }
      ],
      "name": "customerRegister",
      "outputs": [],
      "payable": false,
      "stateMutability": "nonpayable",
      "type": "function"
    },
    {
      "constant": true,
      "inputs": [
        {
          "name": "customerAddress",
          "type": "address"
        }
      ],
      "name": "getCustomerInformation",
      "outputs": [
        {
          "name": "name",
          "type": "string"
        },
        {
          "name": "email",
          "type": "string"
        },
        {
          "name": "phoneNumber",
          "type": "uint256"
        },
        {
          "name": "point",
          "type": "uint256"
        }
      ],
      "payable": false,
      "stateMutability": "view",
      "type": "function"
    },
    {
      "constant": false,
      "inputs": [
        {
          "name": "amount",
          "type": "uint256"
        }
      ],
      "name": "earnPoint",
      "outputs": [],
      "payable": false,
      "stateMutability": "nonpayable",
      "type": "function"
    },
    {
      "constant": false,
      "inputs": [
        {
          "name": "amount",
          "type": "uint256"
        }
      ],
      "name": "usePoint",
      "outputs": [],
      "payable": false,
      "stateMutability": "nonpayable",
      "type": "function"
    },
    {
      "constant": false,
      "inputs": [
        {
          "name": "receiverAddress",
          "type": "address"
        },
        {
          "name": "amount",
          "type": "uint256"
        }
      ],
      "name": "sendPoint",
      "outputs": [],
      "payable": false,
      "stateMutability": "nonpayable",
      "type": "function"
    }
  ],
  "bytecode": "0x608060405234801561001057600080fd5b5061080e806100206000396000f30060806040526004361061006c576000357c0100000000000000000000000000000000000000000000000000000000900463ffffffff16806228217d1461007157806311d2141a1461009e5780631fc3b8b1146101575780634ba99a1e146101a4578063ab0c9468146101d1575b600080fd5b34801561007d57600080fd5b5061009c60048036038101908080359060200190929190505050610307565b005b3480156100aa57600080fd5b50610155600480360381019080803590602001908201803590602001908080601f0160208091040260200160405190810160405280939291908181526020018383808284378201915050505050509192919290803590602001908201803590602001908080601f01602080910402602001604051908101604052809392919081815260200183838082843782019150505050505091929192908035906020019092919050505061036f565b005b34801561016357600080fd5b506101a2600480360381019080803573ffffffffffffffffffffffffffffffffffffffff16906020019092919080359060200190929190505050610426565b005b3480156101b057600080fd5b506101cf600480360381019080803590602001909291905050506104e6565b005b3480156101dd57600080fd5b50610212600480360381019080803573ffffffffffffffffffffffffffffffffffffffff16906020019092919050505061053e565b604051808060200180602001858152602001848152602001838103835287818151815260200191508051906020019080838360005b83811015610262578082015181840152602081019050610247565b50505050905090810190601f16801561028f5780820380516001836020036101000a031916815260200191505b50838103825286818151815260200191508051906020019080838360005b838110156102c85780820151818401526020810190506102ad565b50505050905090810190601f1680156102f55780820380516001836020036101000a031916815260200191505b50965050505050505060405180910390f35b60008060003373ffffffffffffffffffffffffffffffffffffffff1673ffffffffffffffffffffffffffffffffffffffff16815260200190815260200160002090508181600301541015151561035c57600080fd5b8181600301540381600301819055505050565b60806040519081016040528084815260200183815260200182815260200160008152506000803373ffffffffffffffffffffffffffffffffffffffff1673ffffffffffffffffffffffffffffffffffffffff16815260200190815260200160002060008201518160000190805190602001906103ec929190610714565b506020820151816001019080519060200190610409929190610714565b506040820151816002015560608201518160030155905050505050565b6000806000803373ffffffffffffffffffffffffffffffffffffffff1673ffffffffffffffffffffffffffffffffffffffff16815260200190815260200160002091506000808573ffffffffffffffffffffffffffffffffffffffff1673ffffffffffffffffffffffffffffffffffffffff1681526020019081526020016000209050828260030154101515156104bc57600080fd5b82826003016000828254039250508190555082816003016000828254019250508190555050505050565b60008060003373ffffffffffffffffffffffffffffffffffffffff1673ffffffffffffffffffffffffffffffffffffffff16815260200190815260200160002090508181600301600082825401925050819055505050565b60608060008061054c610794565b6000808773ffffffffffffffffffffffffffffffffffffffff1673ffffffffffffffffffffffffffffffffffffffff16815260200190815260200160002060806040519081016040529081600082018054600181600116156101000203166002900480601f01602080910402602001604051908101604052809291908181526020018280546001816001161561010002031660029004801561062f5780601f106106045761010080835404028352916020019161062f565b820191906000526020600020905b81548152906001019060200180831161061257829003601f168201915b50505050508152602001600182018054600181600116156101000203166002900480601f0160208091040260200160405190810160405280929190818152602001828054600181600116156101000203166002900480156106d15780601f106106a6576101008083540402835291602001916106d1565b820191906000526020600020905b8154815290600101906020018083116106b457829003601f168201915b5050505050815260200160028201548152602001600382015481525050905080600001519450806020015193508060400151925080606001519150509193509193565b828054600181600116156101000203166002900490600052602060002090601f016020900481019282601f1061075557805160ff1916838001178555610783565b82800160010185558215610783579182015b82811115610782578251825591602001919060010190610767565b5b50905061079091906107bd565b5090565b608060405190810160405280606081526020016060815260200160008152602001600081525090565b6107df91905b808211156107db5760008160009055506001016107c3565b5090565b905600a165627a7a7230582086eb873ec9f5a1b4919942a56d3ccffab2d16b9553425b9ee495f155cdf539fc0029",
  "source": "pragma solidity ^0.4.24;\r\n\r\ncontract LoyaltyPointSystem{\r\n    \r\n    \r\n    struct Customer{\r\n        string name;\r\n        string email;\r\n        uint phoneNumber;\r\n        uint point;\r\n    }\r\n    \r\n    mapping(address => Customer) customerList;\r\n    \r\n    function customerRegister(string _name, string _email, uint _phoneNumber )public{\r\n        customerList[msg.sender]= Customer(_name,_email,_phoneNumber,0);\r\n    }\r\n    \r\n\r\n    \r\n    function getCustomerInformation(address customerAddress) external view returns(string name, string email, uint phoneNumber, uint point){\r\n        Customer memory customer = customerList[customerAddress];\r\n        name = customer.name;\r\n        email = customer.email;\r\n        phoneNumber = customer.phoneNumber;\r\n        point = customer.point;\r\n        \r\n    }\r\n    \r\n    function earnPoint(uint amount)public {\r\n        Customer storage customer = customerList[msg.sender];\r\n        customer.point += amount;\r\n    }\r\n    \r\n    function usePoint(uint amount)public {\r\n        Customer storage customer = customerList[msg.sender];\r\n        require(customer.point >= amount );\r\n        customer.point= customer.point - amount;\r\n    }\r\n    \r\n    function sendPoint( address receiverAddress,uint amount)public{\r\n\r\n        Customer storage sender = customerList[msg.sender];\r\n        Customer storage receiver = customerList[receiverAddress];\r\n        require(sender.point >= amount);\r\n        sender.point-=amount;\r\n        receiver.point+=amount;\r\n    }\r\n    \r\n    \r\n    \r\n    \r\n}\r\n    \r\n    \r\n    \r\n    \r\n    \r\n",
  "sourcePath": "C:\\Users\\Welcome\\Desktop\\New folder (4)\\contracts\\LoyaltyPointSystem.sol",
  "compiler": {
    "name": "solc",
    "version": "0.4.24+commit.e67f0147.Emscripten.clang"
  },
  "schemaVersion": "2.0.1",
  "updatedAt": "2018-12-08T13:41:01.441Z"
}